:100000000C943F000C9467000C9467000C946700FC
:100010000C9467000C9467000C94A0050C94670086
:100020000C9467000C9467000C9467000C946700B4
:100030000C9467000C9467000C9467000C946700A4
:100040000C9443030C9467000C94A3020C947D025F
:100050000C9467000C9467000C9467000C94670084
:100060000C9467000C946700EE0AEE0AEE0A270B68
:10007000120B210BEE0AEE0A270B120B550C112462
:100080001FBECFEFD8E0DEBFCDBF11E0A0E0B1E0F2
:10009000ECEFF0E202C005900D92A034B107D9F761
:1000A00023E0A0E4B1E001C01D92AE33B207E1F756
:1000B00010E0CFE3D0E004C02197FE010E94400F82
:1000C000CE33D107C9F70E94490B0C947C100C94D5
:1000D0000000E0913B02F0913C028081811103C05D
:1000E0008FEF9FEF0CC0E0913B02F0913C02058046
:1000F000F681E02D0680F781E02D82819381909337
:1001000016028093150208950CEA11E080E4E82EAF
:1001100081E0F82E9CE6B92E24E6C22EC1E0D0E0A4
:100120008AE191E00E94FA0210920101109200010E
:1001300081E892E00E94CA01892B19F40E947F0D88
:10014000F7CF81E892E00E94A801D82E0E940C030C
:1001500080911002909111022DE0D21661F09C0165
:100160002F5F3F4F3093110220931002FC01E455A2
:10017000FE4FD082DDCFFC01E455FE4FD0820E94BD
:100180000C038CEA91E00E94FA028DE191E00E945A
:10019000FA020E940C03F7012B2D11922A95E9F720
:1001A00040911002509111026CEA71E080E491E0FC
:1001B0000E946C10F8012C2D11922A95E9F71092EB
:1001C000110210921002D0930101C09300010E940D
:1001D0007F0D0E947F0DA4CF8091000190910101BD
:1001E000892B41F080E291E00E94FA028DE191E0DA
:1001F0000E94FA020E947F0DEFCF809114028823A3
:1002000009F10FB6F8940F92E0914B02F0914C0275
:10021000C681D781CE0102960E94A30580918002FB
:100220008150809380028091140281508093140247
:100230000F900FBE8F89988D0E94E408CE010E9416
:10024000E408DBCF80915802823010F00E946A06E9
:100250000E947102D2CF0F931F93E1E8F2E0A089D0
:10026000B18982E08C93A485B5851C92A685B7855B
:100270008FEC8C93108EA489B58986E08C93A2892B
:10028000B3898C9180618C93A289B3898C918860A9
:100290008C93A289B3898C9180688C930288F389AE
:1002A000E02D80818F7D808300E010E023E040E836
:1002B00050E067E271E084E890E00E948D0D21E05B
:1002C00040E850E060E371E08CEE90E00E948D0D1C
:1002D0001F910F910895CF92DF92EF92FF920F93AB
:1002E0001F93CF93DF936C017A018B01C0E0D0E0C4
:1002F000CE15DF0581F0D8016D918D01D601ED910C
:10030000FC910190F081E02DC6010995892B11F037
:100310002196EECF7E01C701DF91CF911F910F9102
:10032000FF90EF90DF90CF900895089580E090E0E7
:100330000895FC01538D448D252F30E0842F90E0EB
:10034000821B930B541710F0CF96089501970895D0
:10035000FC01918D828D981761F0828DDF01A80FCD
:10036000B11D5D968C91928D9F5F9F73928F90E0EF
:1003700008958FEF9FEF0895FC01918D828D98175E
:1003800031F0828DE80FF11D858D90E008958FEF9B
:100390009FEF0895FC01918D228D892F90E0805C64
:1003A0009F4F821B91098F739927089581E892E0EE
:1003B0000E94CA0121E0892B09F420E0822F0895D0
:1003C000FC01848DDF01A80FB11DA35ABF4F2C91F2
:1003D000848D90E001968F739927848FA689B789C1
:1003E0002C93A089B1898C91837080648C93938DB8
:1003F000848D981306C00288F389E02D80818F7D5B
:1004000080830895EF92FF920F931F93CF93DF9312
:10041000EC0181E0888F9B8D8C8D981305C0E88955
:10042000F989808185FD26C0F62E0B8D10E00F5FC7
:100430001F4F0F731127E02E8C8DE8120CC00FB6E2
:1004400007FCFACFE889F989808185FFF5CFCE01D5
:100450000E94E001F1CF8B8DFE01E80FF11DE35A00
:10046000FF4FF0829FB7F8940B8FEA89FB89808158
:1004700080620AC09FB7F894EE89FF896083E8899B
:10048000F98980818370806480839FBF81E090E0E0
:10049000DF91CF911F910F91FF90EF900895CF932F
:1004A000DF93EC01888D8823C9F0EA89FB8980817C
:1004B00085FD05C0A889B9898C9186FD0FC00FB64E
:1004C00007FCF5CF808185FFF2CFA889B9898C918F
:1004D00085FFEDCFCE010E94E001E7CFDF91CF9104
:1004E000089580E090E0892B29F00E94D6018111C7
:1004F0000C94000008950E9467101F920F920FB68F
:100500000F9211242F933F934F935F936F937F9399
:100510008F939F93AF93BF93EF93FF9381E892E004
:100520000E94E001FF91EF91BF91AF919F918F9158
:100530007F916F915F914F913F912F910F900FBEDF
:100540000F901F9018951F920F920FB60F921124C3
:100550002F938F939F93EF93FF93E0919102F091EC
:1005600092028081E0919702F091980282FD12C080
:10057000908180919A028F5F8F7320919B028217E6
:1005800051F0E0919A02F0E0EF57FD4F958F809384
:100590009A0201C08081FF91EF919F918F912F91DD
:1005A0000F900FBE0F901F9018953FB7F894809151
:1005B000230390912403A0912503B091260326B52F
:1005C000A89B05C02F3F19F00196A11DB11D3FBF8B
:1005D000BA2FA92F982F8827820F911DA11DB11D19
:1005E000BC01CD0142E0660F771F881F991F4A9515
:1005F000D1F70895009769F0FC0101900020E9F718
:100600003197AF01481B590BBC0181E892E00C9473
:100610006B0180E090E008958F929F92AF92BF921D
:10062000CF92DF92EF92FF920E94D5024B015C01C4
:100630008AE0C82ED12CE12CF12C0E94D502DC01DD
:10064000CB0188199909AA09BB09883E9340A105E5
:10065000B10598F321E0C21AD108E108F10888EE4B
:10066000880E83E0981EA11CB11CC114D104E104C2
:10067000F10419F7FF90EF90DF90CF90BF90AF900B
:100680009F908F9008951F920F920FB60F92112492
:100690002F933F938F939F93AF93BF9380911F03AB
:1006A00090912003A0912103B091220330911E0369
:1006B00023E0230F2D3720F40196A11DB11D05C0A5
:1006C00026E8230F0296A11DB11D20931E038093DF
:1006D0001F0390932003A0932103B09322038091E2
:1006E000230390912403A0912503B0912603019642
:1006F000A11DB11D8093230390932403A093250390
:10070000B0932603BF91AF919F918F913F912F910D
:100710000F900FBE0F901F9018950F920FB6F89480
:100720000F921F9211242F923F924F925F926F92DD
:100730007F928F929F92AF92BF92CF92DF92EF9271
:10074000FF920F931F932F933F934F935F936F935A
:100750007F938F939F93AF93BF93CF93DF93EF9349
:10076000FF93A0917E02B0917F020DB60D920EB65E
:100770000D9213BE809133028111F3C08091360235
:10078000909137020196909337028093360200973A
:1007900099F520913B0230913C02409139025091F1
:1007A0003A0250933C0240933B0230933A0220932A
:1007B0003902209138022F5F20933802E0913B02EA
:1007C000F0913C022081211107C02FEF3FEF3093C1
:1007D00016022093150210C0E0913B02F0913C02FA
:1007E0000580F681E02D0680F781E02D228133819E
:1007F00030931602209315022091150230911602B3
:100800008217930708F49CC020E019E0E0913B02B6
:10081000F0913C023081311107C08FEF9FEF909330
:100820001602809315028DC0E0913B02F0913C02CC
:100830000580F681E02D0680F781E02D428153810D
:100840008417950728F4509316024093150279C037
:10085000AF014E5F5F4FA285B38564817581E680ED
:10086000F780EB01FD82EC82C681D7817B836A83AE
:1008700011966D917C9112974617570721F41296A5
:10088000DC93CE931197138612863C9131503C93A2
:100890003C91A489B5891097F9F066857785E08841
:1008A000F188EB01FD82EC82C089D1897B836A8368
:1008B0001196ED90FC901297BF01645F7F4FE61692
:1008C000F70621F41296DC93CE931197158A148AB9
:1008D0003C9131503C933C91A68930917C023A176F
:1008E00010F4A0937C021A9FD0011124BD01685A14
:1008F0007D4F7B01DB011196CD91DC911297D58361
:10090000C4836C817D81778366836C817D81DB010B
:1009100013965C934E9312975D834C83F386E28625
:10092000E70138813F5F3883A0917E02B0917F025A
:10093000468956963C91431708F468CF21E066CF6C
:1009400020E0E0917E02F0917F02E689D9E0ED9F00
:10095000F0011124E85AFD4F8081823040F021E0FF
:1009600006C0809112028F5F8093120220E0809176
:100970001302811103C0222309F466C0809133025F
:10098000882321F081E0809313025EC0109213024D
:10099000A0917E02B0917F02E0917E02F0917F02F1
:1009A0002D913C918789908D82179307A8F08091B3
:1009B0007E0290917F0280917E0290917F02259A23
:1009C0002D9A2FEF67EA71E6215060407040E1F701
:1009D00000C000001D9AF5CF80917C0269E001C043
:1009E0008150482F50E0649F9001659F300D112485
:1009F000F901E85AFD4F9081992391F3A181B281C9
:100A000012960D90BC91A02DB283A183255A3D4F23
:100A1000A217B30731F412962D913C9113973283AC
:100A2000218399E0949FF001959FF00D1124E85ADD
:100A3000FD4F0180F281E02D2681378130937F02C6
:100A400020937E0280937C02A0917E02B0917F026F
:100A5000CD91CDBFDD91DEBFFF91EF91DF91CF91C1
:100A6000BF91AF919F918F917F916F915F914F91C6
:100A70003F912F911F910F91FF90EF90DF90CF90BA
:100A8000BF90AF909F908F907F906F905F904F90AE
:100A90003F902F901F900F900FBE0F900895FC0174
:100AA000DB010FB6F8940F92409136025091370255
:100AB0002D913C9111972F3F8FEF380701F18181E4
:100AC0009281609138027081761719F048175907A2
:100AD000C0F4481B590B4217530770F4241B350B05
:100AE0002D933C93809138028083809136029091BF
:100AF00037029283818303C01D921C9202C080E062
:100B000001C081E00F900FBE08950FB6F8940F92C8
:100B100080913602909137020F900FBE0895809118
:100B200033028F5F8093330208950FB6F8940F92CB
:100B3000FC01928D0F900FBE81E0911180E008952D
:100B40000E948D031895CF93DF93FC01A085B1859A
:100B50008281938124813581EC013D832C83C48182
:100B6000D5819B838A8311968D919C911297E8176A
:100B7000F90721F41296DC93CE9311971186108613
:100B80008C9181508C938C91DF91CF910895CF936C
:100B9000DF939C01FB01DC011196CD91DC91129752
:100BA000D383C2838C819D81958384838C819D8135
:100BB000DC0113967C936E9312977D836C8331874F
:100BC0002087F90180818F5F8083DF91CF91089525
:100BD0000F931F93CF93DF93DC011596ED91FC915A
:100BE0001697C681D7818E01045F1F4FC8010E94EE
:100BF000A30580913302811114C00A501109C80164
:100C00000E94A3058E8990917C02981710F480931E
:100C10007C02B9E08B9FC0011124B801885A9D4F16
:100C200003C0B8018FE492E00E94C705E0917E0204
:100C3000F0917F029E898689891720F481E0809354
:100C4000130201C080E0DF91CF911F910F910895B1
:100C5000EF92FF920F931F93CF93DF93EC010FB6A8
:100C6000F8940F921E8D7C0181E1E80EF11C01E0E9
:100C700011165CF48989882341F0C7010E94E805B8
:100C80008111009313021150F3CF8FEF8E8F0F90CD
:100C90000FBE0FB6F8940F921D8D7E0188E0E80E0E
:100CA000F11C01E011165CF48885882341F0C7012E
:100CB0000E94E8058111009313021150F3CF8FEFCA
:100CC0008D8F0F900FBEDF91CF911F910F91FF90ED
:100CD000EF9008950F920FB6F8940F921F9211247F
:100CE0002F923F924F925F926F927F928F929F923C
:100CF000AF92BF92CF92DF92EF92FF920F931F932A
:100D00002F933F934F935F936F937F938F939F9313
:100D1000AF93BF93CF93DF93EF93FF93A0917E02A6
:100D2000B0917F020DB60D920EB60D9280913302F6
:100D3000882321F081E0809313025EC01092130299
:100D4000A0917E02B0917F02E0917E02F0917F023D
:100D50002D913C918789908D82179307A8F08091FF
:100D60007E0290917F0280917E0290917F02259A6F
:100D70002D9A2FEF87EA91E6215080409040E1F7CD
:100D800000C000001D9AF5CF80917C0269E001C08F
:100D90008150482F50E0649F9001659F300D1124D1
:100DA000F901E85AFD4F9081992391F3A181B28115
:100DB00012960D90BC91A02DB283A183255A3D4F70
:100DC000A217B30731F412962D913C9113973283F9
:100DD000218399E0949FF001959FF00D1124E85A2A
:100DE000FD4F0180F281E02D2681378130937F0213
:100DF00020937E0280937C02A0917E02B0917F02BC
:100E0000CD91CDBFDD91DEBFFF91EF91DF91CF910D
:100E1000BF91AF919F918F917F916F915F914F9112
:100E20003F912F911F910F91FF90EF90DF90CF9006
:100E3000BF90AF909F908F907F906F905F904F90FA
:100E40003F902F901F900F900FBE0F9008958F929C
:100E50009F92AF92BF92CF92DF92EF92FF920F9349
:100E60001F93CF93DF930FB6F8940F9280913302C4
:100E700081508093330280913302882311F080E007
:100E8000F2C0809180028823D1F3C0E0D0E029E055
:100E9000F22EEE24E39480914F02882351F1E091E9
:100EA0005402F0915502C681D781CE010C960E9462
:100EB000A3058E010E5F1F4FC8010E94A3058E89F6
:100EC00090917C02981710F480937C02F89EC001E8
:100ED0001124B801885A9D4F0E94C705E0917E02F7
:100EE000F0917F029E8986899817A8F2E0921302FA
:100EF000D2CFCD2B11F00E946900E0901202EE20BB
:100F000009F4A9C089E0982E88248394CC24CA943B
:100F1000DC2C8091330281118CC0C0913602D091BB
:100F200037022196D0933702C09336022097B9F446
:100F300080913B0290913C022091390230913A021B
:100F400030933C0220933B0290933A028093390203
:100F5000809138028F5F809338020E9469008091EF
:100F6000150290911602F12CC817D90708F451C048
:100F7000E0913B02F0913C028081811105C0D0924A
:100F80001602C092150245C0E0913B02F0913C026E
:100F90000580F681E02D06811781D80112968D918A
:100FA0009C911397C817D90728F490931602809341
:100FB00015022FC05801B2E0AB0EB11CC5010E9452
:100FC000A305F80184899589892B21F0C8010C9625
:100FD0000E94A305D80156968C9190917C02981797
:100FE00010F480937C02989EC0011124B501885AA8
:100FF0009D4F0E94C705E0917E02F0917F02D801CB
:1010000056969C918689981708F4B2CFFF24F394E2
:10101000AFCFE0917E02F0917F02E6899E9EF001C3
:101020001124E85AFD4F8081823048F0FF24F39468
:1010300006C0809112028F5F80931202F12C809182
:101040001302811101C0F11080921302EA94E110A1
:1010500060CF1092120280911302882309F40FCFFF
:101060000E946A0681E00F900FBEDF91CF911F9121
:101070000F91FF90EF90DF90CF90BF90AF909F9037
:101080008F9008950F931F93CF93DF938C01FB01F3
:10109000808191818F3F2FEF920721F4E801AF818A
:1010A000B8850EC0D801139612962D913C911397D6
:1010B000E901488159818417950710F0D901F4CFCF
:1010C00012968D919C91139793838283EC01FD83FB
:1010D000EC83B583A4831396FC93EE931297118748
:1010E0000087F80180818F5F8083DF91CF911F910E
:1010F0000F910895FF920F931F93CF93DF93EC010D
:10110000F62E009136021091370280917E02909166
:101110007F0202960E94A305CF3F8FEFD80789F484
:10112000FF2079F060917E0270917F026E5F7F4FA9
:101130008DE392E0DF91CF911F910F91FF900C947E
:10114000C705C00FD11FE0917E02F0917F02D383CB
:10115000C28360917E0270917F02C017D10768F44C
:101160008091390290913A026E5F7F4FDF91CF916B
:101170001F910F91FF900C94420880913B02909137
:101180003C026E5F7F4F0E94420880911502909151
:101190001602C817D90720F4D0931602C09315027F
:1011A000DF91CF911F910F91FF900895FC0103965D
:1011B000928381832FEF3FEF34832383968385834C
:1011C0009087878310820895CF93DF93009751F023
:1011D000EC010E948F05CE010E94DE0FDF91CF91BE
:1011E0000C942707DF91CF910895CF93DF93EC0103
:1011F0000E948F05CE010E94460FEC010E94270736
:10120000209769F4259A2D9A2FEF80E792E02150DC
:1012100080409040E1F700C000001D9AF5CFCE015C
:10122000DF91CF910895FC0173836283918780875A
:101230004617570778F0421B530B8485958548174E
:101240005907C8F4BF016E5F7F4F809119029091DA
:101250001A020DC04217530718F46217730758F4A7
:10126000BF016E5F7F4F80911B0290911C020E9414
:10127000420880E0089581E00895EF92FF920F9375
:101280001F93CF93DF93E0911B02F0911C028081AA
:10129000882369F10580F681E02D00811181C681E6
:1012A000D7817E0182E0E80EF11CC7010E94A305F0
:1012B000E889F989CE0109958A8982FFE4CF8C8576
:1012C0009D85800F911F0817190760F49B838A83FF
:1012D000D987C887B70180911B0290911C020E9498
:1012E0004208D1CFB801CE010E94170FCCCF809118
:1012F000190290911A0290931C0280931B02F093A2
:101300001A02E0931902DF91CF911F910F91FF9084
:10131000EF900895CF93DF93CDB7DEB72A970FB63E
:10132000F894DEBF0FBECDBFE0911B02F0911C020E
:10133000F080FF2031F00580F681E02D00811181E1
:1013400002C000E010E00E948F050E9485056C013C
:101350008091170290911802C816D90620F40E94B5
:101360003D0981E001C080E0D0921802C0921702CE
:10137000811179C0FF20A9F1C016D106D0F10E94D9
:101380002707E0911B02F0911C020580F681E02DF9
:10139000E680F780C70102960E94A305D701529606
:1013A0008C91529782FF12C01C966D917C911D9773
:1013B000600F711F9801A601C7010E9413098823BD
:1013C00041F0B801C7010E94170F03C08E7FF701DB
:1013D000828BD7015096ED91FC915197C7010995E9
:1013E000C6C0E0911902F0911A028081BB24B39427
:1013F0008111B12CE0903402F09035020FB6F894D0
:101400000F92F701858D8F3F09F4158ED7015E96F7
:101410008C915E978F3F11F45E961C920F900FBED9
:10142000F701828D811115C060917E0270917F025B
:10143000645F7F4FC70141960E94C705B11004C089
:10144000C8018C199D0902C08FEF9FEF6B2D0E9480
:101450007A08C7010E9428060E942707811187C0C9
:101460000E946A0684C00E94270781C0811109C0BA
:10147000809138028E83809136029091370298874E
:101480008F830F900FBE0E948F050FB6F8940F92B6
:10149000D8015D968C915D978F3F11F45D961C92FB
:1014A000F801868D8F3F09F4168E0F900FBEBE0196
:1014B000675F7F4FCE0106960E944F058111DDC008
:1014C000C8010E949505882309F4D1C0E984FA84F3
:1014D00060917E0270917F02645F7F4FC6010E941F
:1014E000420861E0C7010E947A08C8010E942806EC
:1014F0000E942707882309F4B7C081E00FB6F8944B
:101500000F92F801F28CFF2009F4A6C0448D41111E
:101510003AC0FA94F801F28E808581114EC00F9086
:101520000FBEF980F7FC23C00C811D81D8011A96EB
:101530008D919C911B97892B21F0C80102960E94E6
:10154000A3050E9485056C018091170290911802F5
:10155000C816D90610F40E943D09D0921802C09214
:101560001702EF2DFF0CFF0BEA30F10580F100911F
:101570003402109135021A86198680E06801B1E1C3
:10158000CB0ED11CBBCF50E086819781840F951F75
:1015900097838683248135818217930720F0808189
:1015A000918197838683D80116966D917C911797C8
:1015B000CE0101960E946C10ACCFC80108960E9423
:1015C000E805882309F4ABCF0E946A06A8CFEC5C3B
:1015D000FF4FD80152968C910C94400F8160F80116
:1015E000828BEA80FB80648575856E0D7F1D970177
:1015F000A601C8010E941309882309F4B8CFD801B5
:101600005096ED91FC915197C8010995F801828996
:1016100082FFADCF648575856E0D7F1DC8010E9468
:10162000170FA5CF8160F801828B6A817B81758756
:1016300064876C0D7D1D9601A601C8010E941309E7
:1016400096CF81FD04C0C8010E94E40890CF8E7F30
:10165000D80152968C938BCF29853A85232B09F09C
:1016600005CF0F900FBE60CE0E946A0646CFC8011C
:101670000E9428060E94270740CFC8010E94280622
:101680000E942707C8010E949505882309F435CFD9
:101690004BCE789484B5826084BD84B5816084BD6E
:1016A00085B5826085BD85B5816085BD80916E0000
:1016B000816080936E001092810080918100826031
:1016C000809381008091810081608093810080916E
:1016D00080008160809380008091B100846080935D
:1016E000B1008091B00081608093B00080917A0059
:1016F000846080937A0080917A00826080937A007F
:1017000080917A00816080937A0080917A0080686D
:1017100080937A001092C1000E942B0101E312E035
:1017200020E040EC50E063E371E08DEF90E00E9438
:101730008D0D813009F0B4C00FB6F8940F928091EE
:10174000340290913502892B09F050C086E292E074
:101750000E94D6088DE192E00E94D60886E292E0CF
:1017600090931C0280931B028DE192E090931A02E9
:101770008093190281E590E00E94F508EC01009742
:1017800089F14F96998388838AE08B8F85E08C8FCF
:101790000FB6F8940F92488159818B8D6C8D9A0108
:1017A000869F200D311D11243D832C831A8E5B836F
:1017B0004A8390E00197689F9001699F300D112442
:1017C000CA01820F931F9F838E838FEF8D8F8E8F21
:1017D000CE0108960E94D608CE0141960E94D608F6
:1017E0000F900FBED0933502C09334020F900FBEFE
:1017F0008091340290913502892B09F451C00FE297
:1018000012E023E045E550E068E371E08AE899E002
:101810000E948D0D813009F043C0F8942FEF3FEF07
:10182000309316022093150280937D0210923702A6
:1018300010923602A89590EC88E10FB6F894A8951E
:10184000809360000FBE90936000A0917E02B091E3
:101850007F02CD91CDBFDD91DEBFFF91EF91DF9192
:10186000CF91BF91AF919F918F917F916F915F9138
:101870004F913F912F911F910F91FF90EF90DF902B
:10188000CF90BF90AF909F908F907F906F905F9020
:101890004F903F902F901F900F900FBE0F90089584
:1018A0000E942B010E947102FDCFE1E8F2E0138259
:1018B000128288EE93E0A0E0B0E084839583A68353
:1018C000B7838CE091E09183808385EC90E09587ED
:1018D000848784EC90E09787868780EC90E0918BFA
:1018E000808B81EC90E0938B828B82EC90E0958BE7
:1018F000848B86EC90E0978B868B118E128E138EE4
:10190000148E0895AF92BF92CF92DF92EF92FF9222
:101910000F931F93CF93DF9300D000D01F92CDB7CA
:10192000DEB78C017B011D821C8280E0680198E09B
:10193000C90ED11C0FB6F8940F92F801228D938D29
:10194000291708F06DC0D28C448D41113FC08081B1
:101950009181892B09F052C0F801E480F580E114EF
:10196000F10411F480E02EC0F70182A1815082A31E
:10197000268991A12917B1F38111F4CF5701F2E023
:10198000AF0EB11CC5010E94A305F70181A1868B92
:10199000482F50E024E030E0241B350B35872487A6
:1019A00090917C02981710F480937C0229E0249F88
:1019B000C001259F900D1124B501885A9D4F0E94AA
:1019C000C70581E0F8011582148219C050E0B70103
:1019D000F801828193810E946C10F801248D82812C
:1019E0009381820F911D9383828324813581821795
:1019F000930720F0808191819383828380E0D39448
:101A0000F801D28E9189992321F0C80141960E9454
:101A1000E80581110E946A060F900FBE81E05FC049
:101A20002C813D81232B19F40F900FBE57C08111DB
:101A300009C08091380289838091360290913702E3
:101A40009B838A830F900FBE0E948F050FB6F89478
:101A50000F92F801858D8F3F09F4158EF801868D60
:101A60008F3F09F4168E0F900FBEBE016C5F7F4F43
:101A7000CE0101960E944F0581112BC00FB6F8943C
:101A80000F92F801928D838D0F900FBE98131BC09B
:101A9000AC80BD8060917E0270917F02645F7F4F59
:101AA000C6010E94420861E0C5010E947A08C8018F
:101AB0000E9428060E942707882311F081E03ACF70
:101AC0000E946A06FBCFC8010E9428060E942707D1
:101AD000F5CFC8010E9428060E94270780E00F90DA
:101AE0000F900F900F900F90DF91CF911F910F915A
:101AF000FF90EF90DF90CF90BF90AF9008950E943D
:101B00008F0560E081E090E00E947A080E9427073C
:101B1000811102C00E946A0608957F928F929F925F
:101B2000AF92BF92CF92DF92EF92FF920F931F93EB
:101B3000CF93DF93782EA92E6B01EA01B22ECA0152
:101B40000E94F5084C01892B09F462C188E290E0FB
:101B50000E94F5087C010097E9F0DC0158969C9200
:101B60008E925797AE0165EA70E0C4010E9475102D
:101B70002197D7015796ED91FC915897EC0FFD1FD7
:101B8000C114D104D9F0B701675E7F4FD601C601F9
:101B9000089607C0C4010E94E4083AC1A817B90713
:101BA00049F09D014D91EB014993BE01E901288166
:101BB0002111F4CFD70190961C9202C0E701198E33
:101BC0008B2D843008F083E0D70156968C9356977E
:101BD00091968C93919792961C9292971B961C9239
:101BE0001E921A9755961C921E9254971996FC9223
:101BF000EE92189724E030E0E901C81BD1091D9648
:101C0000DC93CE931C975396FC92EE925297939648
:101C10001D921D921D921C92969797961C9291E18F
:101C20009083DF01119782E28C93119723E32C9329
:101C300011977C921197AC9211971C92119720E802
:101C40002C9311971C92119722E02C93119723E06B
:101C50002C93119724E02C93119725E02C93119746
:101C600026E02C93119727E02C93119728E02C93D2
:101C7000119729E02C93119720E12C9311979C93B5
:101C8000119792E19C93119793E19C93119794E1A2
:101C90009C93119795E19C93119796E19C931197D2
:101CA00097E19C93119798E19C93119799E19C93EC
:101CB000119790E29C93119791E29C9311978C93CA
:101CC000119783E28C9311971C9211971C92119794
:101CD00086E28C93119787E28C93119788E28C931C
:101CE000119789E28C93119780E38C93119781E38C
:101CF0008C93B697E701F983E8830115110519F074
:101D0000F801F182E0820FB6F8940F928091800280
:101D10008F5F8093800280917E0290917F02892B59
:101D2000D1F5F0927F02E0927E02809180028130B4
:101D300009F043C088E592E00E94D60881E692E06F
:101D40000E94D6088AE692E00E94D60883E792E0D5
:101D50000E94D60880E393E00E94D60887E293E0D1
:101D60000E94D6088FE492E00E94D60886E492E0B2
:101D70000E94D6088DE392E00E94D60880E393E0AB
:101D800090933C0280933B0287E293E090933A0267
:101D90008093390212C080917D0281110EC0E091C2
:101DA0007E02F0917F029689D70156968C91891711
:101DB00020F0F0927F02E0927E02809139038F5FE3
:101DC00080933903E7018E8990917C02981710F473
:101DD00080937C02D9E08D9FC0011124B7016E5F12
:101DE0007F4F885A9D4F0E94C7050F900FBE80916C
:101DF0007D02882359F0E0917E02F0917F0296895E
:101E0000F7018689981710F40E946A0681E001C0E4
:101E10008FEFDF91CF911F910F91FF90EF90DF90A7
:101E2000CF90BF90AF909F908F907F900895CF9369
:101E3000DF9300D000D01F92CDB7DEB79C01809118
:101E4000340290913502009761F019827B836A8396
:101E50003D832C8320917D02222329F0209133029F
:101E600002C080E005C0BE016F5F7F4F0E94820C00
:101E70000F900F900F900F900F90DF91CF910895DA
:101E8000EE0FFF1F0590F491E02D09940F931F931F
:101E9000CF93DF938230910510F482E090E0E091DF
:101EA0003C03F0913D0320E030E0A0E0B0E030974B
:101EB00019F1408151810281138148175907C8F0F7
:101EC0008417950769F4109731F012960C931297C6
:101ED00013961C9327C000933C0310933D0322C02C
:101EE0002115310519F04217530718F49A01BD0165
:101EF000EF01DF01F801DBCF21153105F9F0281BD7
:101F0000390B2430310580F48A819B81611571057C
:101F100021F0FB019383828304C090933D0380935F
:101F20003C03FE01329644C0FE01E20FF31F819391
:101F3000919322503109398328833AC020913A0382
:101F400030913B03232B41F4209104013091050192
:101F500030933B0320933A03209102013091030117
:101F60002115310541F42DB73EB74091060150913E
:101F70000701241B350BE0913A03F0913B03E21774
:101F8000F307A0F42E1B3F0B2817390778F0AC019C
:101F90004E5F5F4F2417350748F04E0F5F1F509379
:101FA0003B0340933A038193919302C0E0E0F0E059
:101FB000CF01DF91CF911F910F910895CF93DF93C0
:101FC000009709F481C0FC01329713821282A0911C
:101FD0003C03B0913D03109781F420813181820F41
:101FE000931F20913A0330913B032817390751F58D
:101FF000F0933B03E0933A0367C0ED0120E030E04B
:10200000CE17DF0740F44A815B819E0141155105DF
:10201000F1F0EA01F5CFD383C28340815181840F6F
:10202000951FC817D90759F488819981840F951F86
:102030000296918380838A819B8193838283211579
:10204000310529F4F0933D03E0933C033DC0E901E1
:10205000FB83EA8349915991C40FD51FEC17FD0703
:1020600061F480819181840F951F0296E901998323
:102070008883828193819B838A83E0E0F0E01296DB
:102080008D919C911397009719F0FD01DC01F7CF1A
:102090008D919C9111979D012E5F3F4F820F931F51
:1020A00020913A0330913B032817390769F43097A0
:1020B00029F410923D0310923C0302C01382128255
:1020C000B0933B03A0933A03DF91CF91089581E051
:1020D00090E0F8940C947C10FB01DC0102C00190AC
:1020E0000D9241505040D8F70895DC0101C06D9326
:0C20F00041505040E0F70895F894FFCFF5
:1020FC00010000003E0380000000000002026B01A2
:10210C0099014F02CA01A801BC013E20000D0A0032
:10211C00232338232323005465726D696E616C0090
:10212C004C430049444C4500546D72205376630077
:00000001FF
