:100000000C9467000C948F000C948F000C948F005C
:100010000C948F000C948F000C94C4060C948F00E9
:100020000C948F000C948F000C948F000C948F0014
:100030000C948F000C948F000C948F000C948F0004
:100040000C9491030C948F000C9401040C94DB032A
:100050000C948F000C948F000C948F000C948F00E4
:100060000C948F000C948F00570D570D570D900D69
:100070007B0D8A0D570D570D900D7B0D0000000074
:10008000240027002A0000000000250028002B0083
:10009000040404040404040402020202020203032E
:1000A0000303030301020408102040800102040836
:1000B00010200102040810200000000800020100C6
:1000C000000304070000000000000000960E112449
:1000D0001FBECFEFD8E0DEBFCDBF11E0A0E0B1E0A2
:1000E000EEE7F8E202C005900D92A238B107D9F709
:1000F00023E0A2E8B1E001C01D92A638B207E1F703
:1001000010E0C7E6D0E004C02197FE010E94011371
:10011000C636D107C9F70E94B20D0C943D140C9459
:100120000000E0918902F0918A028081811103C070
:100130008FEF9FEF0CC0E0918902F0918A02058059
:10014000F681E02D0680F781E02D828193819093E6
:10015000F2018093F101089502E811E08BE1E82EAD
:1001600082E0F82EDCE694E6D92E8091EC019091A5
:10017000ED010E94B40F8130C1F784E591E00E9447
:1001800033048AEA92E00E94B902892B29F485E0BF
:1001900090E00E94FA0AF5CF8AEA92E00E94970264
:1001A000C82F0E946C034B015C010E946C03DC01B0
:1001B000CB0188199909AA09BB09883E9340A1057A
:1001C000B10598F34091E6015091E701CD3059F027
:1001D000CA0101969093E7018093E601FA01EE5778
:1001E000FE4FC083CECFFA01EE57FE4FC083F7011A
:1001F0002D2F11922A95E9F762E871E08BE192E0E8
:100200000E942D14F8012D2D11922A95E9F71092D4
:10021000E7011092E60160E070E08091EC019091BE
:10022000ED010E94C30E88E591E00E948E048823B0
:1002300029F08091EA019091EB0117C087E591E0E8
:100240000E948E04882339F08091EA019091EB019D
:100250000E94AF0915C08DE591E00E948E048823AD
:1002600039F08091E8019091E9010E94660908C087
:1002700080E691E00E94330488E691E00E94330416
:1002800081E090E00E94FA0A70CFE1EBF0E0249167
:10029000EDE9F0E08491882399F090E0880F991FB0
:1002A000FC01E458FF4FA591B491FC01EA57FF4FC0
:1002B000859194918FB7F894EC91E22BEC938FBFDA
:1002C00081E00E9445048EE390E00E94FA0A80E0FB
:1002D0000E9445048EE390E00E94FA0AF1CF8091DB
:1002E000EC019091ED010E94B40F8130C1F788E6D6
:1002F00091E00E943304C0E0D1E0CE010E943304BB
:1003000085E591E00E94330481E090E00E94FA0AC2
:10031000649681E0CC33D80781F788E691E00E94AB
:10032000330460E070E08091EC019091ED010E9457
:10033000C30E80E090E00E94AF09D1CF8091F00120
:10034000882309F10FB6F8940F92E0919902F09189
:100350009A02C681D781CE0102960E94C70680917B
:10036000A70281508093A7028091F0018150809371
:10037000F0010F900FBE8F89988D0E942E0BCE0139
:100380000E942E0BDBCF80914A03823010F00E9436
:100390008E070E946003D2CF0F931F93CF93DF93FA
:1003A000E091BA02F091BB0282E08083E091B60254
:1003B000F091B7021082E091B802F091B9028FEC8F
:1003C00080831092C202E091BE02F091BF0286E0EB
:1003D0008083E091BC02F091BD02808180618083C6
:1003E000E091BC02F091BD02808188608083E09141
:1003F000BC02F091BD02808180688083E091BC02E4
:10040000F091BD0280818F7D80838FE190E00E941A
:100410003F0BEC01009791F09983888381E08B8FEB
:100420001C8ECE010E94D0121D821C82198218825D
:100430001E8260E070E0CE010E94C30ED093ED01F9
:10044000C093EC01209729F060E070E0CE010E949B
:10045000C30E00E010E023E040E850E06BE671E0FE
:100460008CEA90E00E94461108EE11E021E040E89D
:1004700050E06DE571E08FE691E00E9446110AEED2
:1004800011E022E040E850E068E571E085E491E0A9
:100490000E9446118091E8019091E9010E94AF0904
:1004A0008091EA019091EB01DF91CF911F910F9123
:1004B0000C94AF09CF92DF92EF92FF920F931F93AC
:1004C000CF93DF936C017A018B01C0E0D0E0CE15B1
:1004D000DF0581F0D8016D918D01D601ED91FC9180
:1004E0000190F081E02DC6010995892B11F021962C
:1004F000EECF7E01C701DF91CF911F910F91FF9049
:10050000EF90DF90CF900895089580E090E00895F7
:10051000FC01538D448D252F30E0842F90E0821B09
:10052000930B541710F0CF96089501970895FC018E
:10053000918D828D981761F0828DDF01A80FB11D1A
:100540005D968C91928D9F5F9F73928F90E008953E
:100550008FEF9FEF0895FC01918D828D981731F0F8
:10056000828DE80FF11D858D90E008958FEF9FEF4C
:100570000895FC01918D228D892F90E0805C9F4F22
:10058000821B91098F73992708958AEA92E00E944D
:10059000B90221E0892B09F420E0822F0895FC01A3
:1005A000848DDF01A80FB11DA35ABF4F2C91848DFC
:1005B00090E001968F739927848FA689B7892C9331
:1005C000A089B1898C91837080648C93938D848D84
:1005D000981306C00288F389E02D80818F7D808387
:1005E0000895EF92FF920F931F93CF93DF93EC0147
:1005F00081E0888F9B8D8C8D981305C0E889F989DF
:10060000808185FD26C0F62E0B8D10E00F5F1F4FF9
:100610000F731127E02E8C8DE8120CC00FB607FC6B
:10062000FACFE889F989808185FFF5CFCE010E9454
:10063000CF02F1CF8B8DFE01E80FF11DE35AFF4F82
:10064000F0829FB7F8940B8FEA89FB8980818062E2
:100650000AC09FB7F894EE89FF896083E889F98919
:1006600080818370806480839FBF81E090E0DF9110
:10067000CF911F910F91FF90EF900895CF93DF934B
:10068000EC01888D8823C9F0EA89FB89808185FD8A
:1006900005C0A889B9898C9186FD0FC00FB607FCEB
:1006A000F5CF808185FFF2CFA889B9898C9185FF2C
:1006B000EDCFCE010E94CF02E7CFDF91CF91089519
:1006C00080E090E0892B29F00E94C50281110C94F2
:1006D000000008950E9428143FB7F89480911502F5
:1006E00090911602A0911702B091180226B5A89B0E
:1006F00005C02F3F19F00196A11DB11D3FBFBA2FB4
:10070000A92F982F8827820F911DA11DB11DBC0113
:10071000CD0142E0660F771F881F991F4A95D1F7D8
:1007200008951F920F920FB60F9211242F933F93AB
:100730008F939F93AF93BF93809111029091120278
:10074000A0911302B09114023091100223E0230F04
:100750002D3720F40196A11DB11D05C026E8230FF9
:100760000296A11DB11D2093100280931102909357
:100770001202A0931302B09314028091150290917B
:100780001602A0911702B09118020196A11DB11D89
:100790008093150290931602A0931702B09318024B
:1007A000BF91AF919F918F913F912F910F900FBE6D
:1007B0000F901F9018951F920F920FB60F92112451
:1007C0002F933F934F935F936F937F938F939F9359
:1007D000AF93BF93EF93FF938AEA92E00E94CF0218
:1007E000FF91EF91BF91AF919F918F917F916F9109
:1007F0005F914F913F912F910F900FBE0F901F90DF
:1008000018951F920F920FB60F9211242F938F936A
:100810009F93EF93FF93E091BA02F091BB02808126
:10082000E091C002F091C10282FD12C090818091DE
:10083000C3028F5F8F732091C402821751F0E09141
:10084000C302F0E0E655FD4F958F8093C30201C0CF
:100850008081FF91EF919F918F912F910F900FBE0B
:100860000F901F901895009769F0FC0101900020EF
:10087000E9F73197AF01481B590BBC018AEA92E0B6
:100880000C945A0280E090E00895E5ECF0E0949139
:10089000E1EBF0E02491EDE9F0E0E491EE2309F4DE
:1008A0003CC0992339F1933091F038F49130A9F09C
:1008B000923001F594B59F7D12C0973091F0983039
:1008C000A1F09430B9F4909180009F7D03C0909185
:1008D00080009F77909380000DC094B59F7794BD62
:1008E00009C09091B0009F7703C09091B0009F7DA8
:1008F0009093B000F0E0EE0FFF1FEA57FF4FA59175
:10090000B4919FB7F894811104C08C91209528234D
:1009100002C0EC912E2B2C939FBF0895FC010190F7
:100920000020E9F731979F01281B390BEBE1F2E03A
:1009300001900020E9F73197EB51F2402E173F0765
:1009400061F4FC01ABE1B2E0280F391FE217F307B5
:1009500031F091918D919817C9F380E0089581E06D
:1009600008950F920FB6F8940F921F9211242F92B0
:100970003F924F925F926F927F928F929F92AF922F
:10098000BF92CF92DF92EF92FF920F931F932F931C
:100990003F934F935F936F937F938F939F93AF9307
:1009A000BF93CF93DF93EF93FF93A091A802B091F1
:1009B000A9020DB60D920EB60D9213BE8091F301F1
:1009C0008111F3C080914703909148030196909361
:1009D000480380934703009799F52091890230914D
:1009E0008A02409187025091880250938A02409374
:1009F00089023093880220938702209149032F5F58
:100A000020934903E0918902F0918A02208121110B
:100A100007C02FEF3FEF3093F2012093F10110C098
:100A2000E0918902F0918A020580F681E02D06802E
:100A3000F781E02D228133813093F2012093F1017F
:100A40002091F1013091F2018217930708F49CC0C4
:100A500020E019E0E0918902F0918A0230813111A1
:100A600007C08FEF9FEF9093F2018093F1018DC04B
:100A7000E0918902F0918A020580F681E02D0680DE
:100A8000F781E02D428153818417950728F4509314
:100A9000F2014093F10179C0AF014E5F5F4FA28533
:100AA000B38564817581E680F780EB01FD82EC827D
:100AB000C681D7817B836A8311966D917C91129751
:100AC0004617570721F41296DC93CE93119713869D
:100AD00012863C9131503C933C91A489B589109782
:100AE000F9F066857785E088F188EB01FD82EC827C
:100AF000C089D1897B836A831196ED90FC9012970F
:100B0000BF01645F7F4FE616F70621F41296DC936F
:100B1000CE931197158A148A3C9131503C933C91A5
:100B2000A68930916E033A1710F4A0936E031A9FB2
:100B3000D0011124BD01665B7C4F7B01DB01119666
:100B4000CD91DC911297D583C4836C817D817783AD
:100B500066836C817D81DB0113965C934E931297C3
:100B60005D834C83F386E286E70138813F5F3883FB
:100B7000A091A802B091A902468956963C914317CC
:100B800008F468CF21E066CF20E0E091A802F09160
:100B9000A902E689D9E0ED9FF0011124E65BFC4F44
:100BA0008081823040F021E006C08091EE018F5FAD
:100BB0008093EE0120E08091EF01811103C0222398
:100BC00009F466C08091F301882321F081E08093CD
:100BD000EF015EC01092EF01A091A802B091A902AE
:100BE000E091A802F091A9022D913C918789908D06
:100BF00082179307A8F08091A8029091A902809192
:100C0000A8029091A902259A2D9A2FEF67EA71E622
:100C1000215060407040E1F700C000001D9AF5CF00
:100C200080916E0369E001C08150482F50E0649FBD
:100C30009001659F300D1124F901E65BFC4F908116
:100C4000992391F3A181B28112960D90BC91A02DB0
:100C5000B283A183235B3C4FA217B30731F41296F2
:100C60002D913C9113973283218399E0949FF00159
:100C7000959FF00D1124E65BFC4F0180F281E02D81
:100C8000268137813093A9022093A80280936E03B6
:100C9000A091A802B091A902CD91CDBFDD91DEBF98
:100CA000FF91EF91DF91CF91BF91AF919F918F9184
:100CB0007F916F915F914F913F912F911F910F9174
:100CC000FF90EF90DF90CF90BF90AF909F908F906C
:100CD0007F906F905F904F903F902F901F900F905C
:100CE0000FBE0F900895FC01DB010FB6F8940F9230
:100CF00040914703509148032D913C9111972F3F0C
:100D00008FEF380701F181819281609149037081F1
:100D1000761719F048175907C0F4481B590B4217AA
:100D2000530770F4241B350B2D933C93809149039A
:100D3000808380914703909148039283818303C00D
:100D40001D921C9202C080E001C081E00F900FBE96
:100D500008950FB6F8940F9280914703909148033D
:100D60000F900FBE08958091F3018F5F8093F30180
:100D700008950FB6F8940F92FC01928D0F900FBE5C
:100D800081E0911180E008950E94B1041895CF93FD
:100D9000DF93FC01A085B185828193812481358117
:100DA000EC013D832C83C481D5819B838A8311967A
:100DB0008D919C911297E817F90721F41296DC9314
:100DC000CE931197118610868C9181508C938C91C3
:100DD000DF91CF910895CF93DF939C01FB01DC015C
:100DE0001196CD91DC911297D383C2838C819D8122
:100DF000958384838C819D81DC0113967C936E9313
:100E000012977D836C8331872087F90180818F5F02
:100E10008083DF91CF9108950F931F93CF93DF933A
:100E2000DC011596ED91FC911697C681D7818E0154
:100E3000045F1F4FC8010E94C7068091F301811112
:100E400014C00A501109C8010E94C7068E899091EA
:100E50006E03981710F480936E03B9E08B9FC00166
:100E60001124B801865B9C4F03C0B8018DE992E064
:100E70000E94EB06E091A802F091A9029E89868962
:100E8000891720F481E08093EF0101C080E0DF91B9
:100E9000CF911F910F910895EF92FF920F931F939F
:100EA000CF93DF93EC010FB6F8940F921E8D7C0167
:100EB00081E1E80EF11C01E011165CF489898823B8
:100EC00041F0C7010E940C0781110093EF011150FE
:100ED000F3CF8FEF8E8F0F900FBE0FB6F8940F9257
:100EE0001D8D7E0188E0E80EF11C01E011165CF416
:100EF0008885882341F0C7010E940C078111009367
:100F0000EF011150F3CF8FEF8D8F0F900FBEDF9158
:100F1000CF911F910F91FF90EF9008950F920FB610
:100F2000F8940F921F9211242F923F924F925F924A
:100F30006F927F928F929F92AF92BF92CF92DF92E9
:100F4000EF92FF920F931F932F933F934F935F93D3
:100F50006F937F938F939F93AF93BF93CF93DF93C1
:100F6000EF93FF93A091A802B091A9020DB60D9244
:100F70000EB60D928091F301882321F081E08093D9
:100F8000EF015EC01092EF01A091A802B091A902FA
:100F9000E091A802F091A9022D913C918789908D52
:100FA00082179307A8F08091A8029091A9028091DE
:100FB000A8029091A902259A2D9A2FEF87EA91E62F
:100FC000215080409040E1F700C000001D9AF5CF0D
:100FD00080916E0369E001C08150482F50E0649F0A
:100FE0009001659F300D1124F901E65BFC4F908163
:100FF000992391F3A181B28112960D90BC91A02DFD
:10100000B283A183235B3C4FA217B30731F412963E
:101010002D913C9113973283218399E0949FF001A5
:10102000959FF00D1124E65BFC4F0180F281E02DCD
:10103000268137813093A9022093A80280936E0302
:10104000A091A802B091A902CD91CDBFDD91DEBFE4
:10105000FF91EF91DF91CF91BF91AF919F918F91D0
:101060007F916F915F914F913F912F911F910F91C0
:10107000FF90EF90DF90CF90BF90AF909F908F90B8
:101080007F906F905F904F903F902F901F900F90A8
:101090000FBE0F9008958F929F92AF92BF92CF9202
:1010A000DF92EF92FF920F931F93CF93DF930FB6D0
:1010B000F8940F928091F30181508093F301809115
:1010C000F301882311F080E0F2C08091A702882309
:1010D000D1F3C0E0D0E029E0F22EEE24E394809139
:1010E0009D02882351F1E091A202F091A302C681F2
:1010F000D781CE010C960E94C7068E010E5F1F4F4E
:10110000C8010E94C7068E8990916E03981710F44B
:1011100080936E03F89EC0011124B801865B9C4F3A
:101120000E94EB06E091A802F091A9029E898689AF
:101130009817A8F2E092EF01D2CFCD2B11F00E94C8
:101140009100E090EE01EE2009F4A9C089E0982E0C
:1011500088248394CC24CA94DC2C8091F3018111DF
:101160008CC0C0914703D09148032196D093480387
:10117000C09347032097B9F48091890290918A0225
:10118000209187023091880230938A02209389024D
:101190009093880280938702809149038F5F8093A8
:1011A00049030E9491008091F1019091F201F12C8C
:1011B000C817D90708F451C0E0918902F0918A025A
:1011C0008081811105C0D092F201C092F10145C029
:1011D000E0918902F0918A020580F681E02D068176
:1011E0001781D80112968D919C911397C817D90732
:1011F00028F49093F2018093F1012FC05801B2E0DE
:10120000AB0EB11CC5010E94C706F80184899589FF
:10121000892B21F0C8010C960E94C706D80156966A
:101220008C9190916E03981710F480936E03989EA2
:10123000C0011124B501865B9C4F0E94EB06E09132
:10124000A802F091A902D80156969C918689981718
:1012500008F4B2CFFF24F394AFCFE091A802F0914D
:10126000A902E6899E9EF0011124E65BFC4F808175
:10127000823048F0FF24F39406C08091EE018F5F26
:101280008093EE01F12C8091EF01811101C0F110EA
:101290008092EF01EA94E11060CF1092EE0180910C
:1012A000EF01882309F40FCF0E948E0781E00F9091
:1012B0000FBEDF91CF911F910F91FF90EF90DF90C4
:1012C000CF90BF90AF909F908F9008950F931F93F2
:1012D000CF93DF932091A8023091A9028217930740
:1012E00009F438C0009709F435C00FB6F8940F928E
:1012F000FC01228533852B58324051F5FC012489AD
:101300003589F2E02D393F0719F1232B09F5EC015E
:101310008C010E5F1F4FC8010E94C7068E899091F5
:101320006E03981710F480936E0329E0829FC0012A
:101330001124B801865B9C4F0E94EB06E091A80245
:10134000F091A9029E898689981710F00E948E0755
:101350000F900FBEDF91CF911F910F9108950F93C2
:101360001F93CF93DF93EC010FB6F8940F92892B64
:1013700021F4C091A802D091A9028E010E5F1F4FE7
:10138000C8010E94C7068C899D89892B21F0CE0156
:101390000C960E94C706B8018BE892E00E94EB060B
:1013A0008FA1813009F41FA20F900FBE8091A60279
:1013B000882339F00FB6F8940F920E9491000F9095
:1013C0000FBE8091A8029091A902C817D90709F011
:1013D00078C08091A602882319F00E948E0771C000
:1013E00090918B028091A702981305C01092A902D8
:1013F0001092A80266C08091F301882321F081E059
:101400008093EF015EC01092EF01A091A802B0910D
:10141000A902E091A802F091A9022D913C9187893F
:10142000908D82179307A8F08091A8029091A9024D
:101430008091A8029091A902259A2D9A2FEF87EA10
:1014400091E6215080409040E1F700C000001D9AD5
:10145000F5CF80916E0369E0482F50E0649F9001C2
:10146000659F300D1124F901E65BFC4F90819111CD
:1014700002C08150F1CFA181B28112960D90BC9132
:10148000A02DB283A183235B3C4FA217B30731F495
:1014900012962D913C9113973283218399E0949F6A
:1014A000F001959FF00D1124E65BFC4F0180F28165
:1014B000E02D268137813093A9022093A8028093E2
:1014C0006E03DF91CF911F910F9108950F931F939A
:1014D000CF93DF938C01FB01808191818F3F2FEFB0
:1014E000920721F4E801AF81B8850EC0D8011396A8
:1014F00012962D913C911397E901488159818417E7
:10150000950710F0D901F4CF12968D919C91139705
:1015100093838283EC01FD83EC83B583A4831396CC
:10152000FC93EE93129711870087F80180818F5FFB
:101530008083DF91CF911F910F910895FF920F93B8
:101540001F93CF93DF93EC01F62E00914703109188
:1015500048038091A8029091A90202960E94C706B2
:10156000CF3F8FEFD80789F4FF2079F06091A80270
:101570007091A9026E5F7F4F8BE892E0DF91CF916F
:101580001F910F91FF900C94EB06C00FD11FE091BB
:10159000A802F091A902D383C2836091A80270913E
:1015A000A902C017D10768F4809187029091880240
:1015B0006E5F7F4FDF91CF911F910F91FF900C9441
:1015C000660A8091890290918A026E5F7F4F0E9425
:1015D000660A8091F1019091F201C817D90720F4B1
:1015E000D093F201C093F101DF91CF911F910F9140
:1015F000FF900895CF93DF93EC01892B19F40E949B
:101600008E070AC00E94B30660E0CE010E949E0AC7
:101610000E944B08882399F3DF91CF910895CF93CF
:10162000DF93EB016091A8027091A902645F7F4F84
:101630000E94660A61E0CE01DF91CF910C949E0A70
:10164000FC010396928381832FEF3FEF3483238342
:10165000968385839087878310820895CF93DF9345
:10166000009751F0EC010E94B306CE010E949F1337
:10167000DF91CF910C944B08DF91CF910895CF93D8
:10168000DF93EC010E94B306CE010E940713EC0128
:101690000E944B08209769F4259A2D9A2FEF80E736
:1016A00092E0215080409040E1F700C000001D9A78
:1016B000F5CFCE01DF91CF910895CF93DF9300D086
:1016C00000D01F92CDB7DEB79C0180911902909196
:1016D0001A02009761F019827B836A833D832C8311
:1016E0002091A602222329F02091F30102C080E07C
:1016F00005C0BE016F5F7F4F0E94C30E0F900F9019
:101700000F900F900F90DF91CF910895FC0173839C
:101710006283918780874617570778F0421B530BE7
:101720008485958548175907C8F4BF016E5F7F4FC0
:101730008091F6019091F7010DC04217530718F4FC
:101740006217730758F4BF016E5F7F4F8091F801F5
:101750009091F9010E94660A80E0089581E0089561
:10176000EF92FF920F931F93CF93DF93E091F801D5
:10177000F091F9018081882369F10580F681E02DDF
:1017800000811181C681D7817E0182E0E80EF11CC3
:10179000C7010E94C706E889F989CE0109958A899F
:1017A00082FFE4CF8C859D85800F911F0817190754
:1017B00060F49B838A83D987C887B7018091F80139
:1017C0009091F9010E94660AD1CFB801CE010E9422
:1017D0005D0BCCCF8091F6019091F7019093F901C8
:1017E0008093F801F093F701E093F601DF91CF9138
:1017F0001F910F91FF90EF900895CF93DF93CDB796
:10180000DEB72A970FB6F894DEBF0FBECDBFE091CA
:10181000F801F091F901F080FF2031F00580F681A8
:10182000E02D0081118102C000E010E00E94B306AB
:101830000E94A9066C018091F4019091F501C816EF
:10184000D90620F40E94B00B81E001C080E0D09264
:10185000F501C092F401811179C0FF20A9F1C016F1
:10186000D106D0F10E944B08E091F801F091F90106
:101870000580F681E02DE680F780C70102960E9480
:10188000C706D70152968C91529782FF12C01C96C0
:101890006D917C911D97600F711F9801A601C70182
:1018A0000E94860B882341F0B801C7010E945D0B9E
:1018B00003C08E7FF701828BD7015096ED91FC918A
:1018C0005197C7010995BCC0E091F601F091F7016D
:1018D0008081BB24B3948111B12CE0901902F09067
:1018E0001A020FB6F8940F92F701858D8F3F09F415
:1018F000158ED7015E968C915E978F3F11F45E96A0
:101900001C920F900FBEF701828D811115C060915E
:10191000A8027091A902645F7F4FC70141960E949F
:10192000EB06B11004C0C8018C199D0902C08FEFED
:101930009FEF6B2D0E949E0AC7010E944C070E94D8
:101940004B0881117DC00E948E077AC00E944B080F
:1019500077C0811109C0809149038E83809147032C
:101960009091480398878F830F900FBE0E94B30613
:101970000FB6F8940F92D8015D968C915D978F3FCA
:1019800011F45D961C92F801868D8F3F09F4168E36
:101990000F900FBEBE01675F7F4FCE0106960E947B
:1019A00073068111D3C0C8010E94B906882309F4C7
:1019B000C7C069857A85C6010E940F0BC8010E94C5
:1019C0004C070E944B08882309F4B7C081E00FB68A
:1019D000F8940F92F801F28CFF2009F4A6C0448D10
:1019E00041113AC0FA94F801F28E808581114EC0FF
:1019F0000F900FBEF980F7FC23C00C811D81D80128
:101A00001A968D919C911B97892B21F0C801029603
:101A10000E94C7060E94A9066C018091F401909172
:101A2000F501C816D90610F40E94B00BD092F5014A
:101A3000C092F401EF2DFF0CFF0BEA30F10580F1AD
:101A40000091190210911A021A86198680E0680125
:101A5000B1E1CB0ED11CBBCF50E086819781840FC2
:101A6000951F97838683248135818217930720F001
:101A70008081918197838683D80116966D917C91A0
:101A80001797CE0101960E942D14ACCFC80108967D
:101A90000E940C07882309F4ABCF0E948E07A8CFC1
:101AA000EC5CFF4FD80152968C910C94011381602D
:101AB000F801828BEA80FB80648575856E0D7F1D41
:101AC0009701A601C8010E94860B882309F4B8CFAC
:101AD000D8015096ED91FC915197C8010995F801F4
:101AE000828982FFADCF648575856E0D7F1DC8012B
:101AF0000E945D0BA5CF8160F801828B6A817B819A
:101B0000758764876C0D7D1D9601A601C8010E9432
:101B1000860B96CF81FD04C0C8010E942E0B90CF8A
:101B20008E7FD80152968C938BCF29853A85232BB3
:101B300009F00FCF0F900FBE6ACE0E948E0746CFDE
:101B4000C8010E944C070E944B0840CFC8010E9468
:101B50004C070E944B08C8010E94B906882309F46B
:101B600035CF55CE789484B5826084BD84B58160CC
:101B700084BD85B5826085BD85B5816085BD809158
:101B80006E00816080936E001092810080918100D0
:101B900082608093810080918100816080938100C8
:101BA000809180008160809380008091B10084608A
:101BB0008093B1008091B00081608093B0008091EB
:101BC0007A00846080937A0080917A0082608093AA
:101BD0007A0080917A00816080937A0080917A0007
:101BE000806880937A001092C1000E94CC010EE0C0
:101BF00012E020E040EC50E064E771E08EE991E013
:101C00000E944611813009F08CC00FB6F8940F92F3
:101C10008091190290911A02892B49F583E092E094
:101C20000E94200B8AEF91E00E94200B83E092E05B
:101C30009093F9018093F8018AEF91E09093F70176
:101C40008093F60181E590E00E943F0BEC01009744
:101C500051F04F96998388838AE08B8F85E08C8F33
:101C6000CE010E94D012D0931A02C09319020F9095
:101C70000FBE8091190290911A02892B09F451C06C
:101C80000CE012E023E045E550E069E771E08DEFFC
:101C90009BE00E944611813009F043C0F8942FEF79
:101CA0003FEF3093F2012093F1018093A60210924E
:101CB000480310924703A89590EC88E10FB6F8947A
:101CC000A895809360000FBE90936000A091A80239
:101CD000B091A902CD91CDBFDD91DEBFFF91EF9113
:101CE000DF91CF91BF91AF919F918F917F916F9134
:101CF0005F914F913F912F911F910F91FF90EF9026
:101D0000DF90CF90BF90AF909F908F907F906F901B
:101D10005F904F903F902F901F900F900FBE0F90AD
:101D200008950E94CC010E946003FDCFEAEAF2E030
:101D30001382128288EE93E0A0E0B0E08483958362
:101D4000A683B78386E491E09183808385EC90E05D
:101D50009587848784EC90E09787868780EC90E075
:101D6000918B808B81EC90E0938B828B82EC90E066
:101D7000958B848B86EC90E0978B868B118E128EE0
:101D8000138E148E0895AF92BF92DF92EF92FF925E
:101D90000F931F93CF93DF9300D000D01F92CDB746
:101DA000DEB78C017B011D821C8280E0580198E027
:101DB000A90EB11C0FB6F8940F92F801228D938DE5
:101DC000291708F06DC0D28C448D41113FC080812D
:101DD0009181892B09F052C0F801E480F580E1146B
:101DE000F10411F480E02EC0F70182A1815082A39A
:101DF000268991A12917B1F38111F4CF5701F2E09F
:101E0000AF0EB11CC5010E94C706F70181A1868BE8
:101E1000482F50E024E030E0241B350B3587248721
:101E200090916E03981710F480936E0329E0249F1D
:101E3000C001259F900D1124B501865B9C4F0E9427
:101E4000EB0681E0F8011582148219C050E0B70159
:101E5000F801828193810E942D14F801248D8281E2
:101E60009381820F911D9383828324813581821710
:101E7000930720F0808191819383828380E0D394C3
:101E8000F801D28E9189992321F0C80141960E94D0
:101E90000C0781110E948E070F900FBE81E055C084
:101EA0002C813D81232B19F40F900FBE4DC0811161
:101EB00009C0809149038983809147039091480329
:101EC0009B838A830F900FBE0E94B3060FB6F894CF
:101ED0000F92F801858D8F3F09F4158EF801868DDC
:101EE0008F3F09F4168E0F900FBEBE016C5F7F4FBF
:101EF000CE0101960E947306811121C00FB6F8949D
:101F00000F92F801928D838D0F900FBE981311C020
:101F10006C817D81C5010E940F0BC8010E944C0796
:101F20000E944B08882311F081E044CF0E948E0765
:101F3000FBCFC8010E944C070E944B08F5CFC80197
:101F40000E944C070E944B0880E00F900F900F906A
:101F50000F900F90DF91CF911F910F91FF90EF9015
:101F6000DF90BF90AF9008957F928F929F92AF9233
:101F7000BF92CF92DF92EF92FF920F931F93CF9376
:101F8000DF9300D000D01F92CDB7DEB78C0185E083
:101F900090E09D838C83D12C90E0580121E1A20E2A
:101FA000B11C89E0782E24E0822E912C0FB6F89493
:101FB0000F92D8015A968C915A97882361F18150DB
:101FC0005A968C935A978D919C91892BA1F480916C
:101FD000A8029091A902892B39F0E091A802F09112
:101FE000A90282A18F5F82A38091A8029091A90289
:101FF000F80195838483D80118968C91882339F051
:10200000C80108960E940C0781110E948E070F904C
:102010000FBE81E028C12C813D81232B09F420C112
:10202000911109C080914903898380914703909160
:1020300048039B838A830F900FBE0E94B3060FB69E
:10204000F8940F92F801858D8F3F09F4158ED80111
:102050005E968C915E978F3F11F45E961C920F9066
:102060000FBEBE016C5F7F4FCE0101960E947306CA
:1020700081118BC0C8010E94B906882309F47FC072
:10208000F80180819181892B09F068C00FB6F8941E
:102090000F92E480F580E114F10409F45CC0F701CB
:1020A0008689E091A802F091A9029689891708F023
:1020B00046C0D7011C962D913C911D9737FD0CC051
:1020C000E091A802F091A90296899401291B310997
:1020D0001D963C932E931C97789EC0011124865B1D
:1020E0009C4FF7012285338528173907F1F46701E2
:1020F000F2E0CF0ED11CC6010E94C706E091A802F3
:10210000F091A9028689D70156968C9390916E031F
:10211000981710F480936E03789EC0011124B601C5
:10212000865B9C4F0E94EB0607C0E091A802F091ED
:10213000A9028689F701868BDD24D3940DC0E09136
:10214000A802F091A902DD24D394D70191969C9125
:102150008689981708F0D12C0F900FBE6C817D8175
:10216000C5010E940F0BC8010E944C070E944B083A
:10217000882311F091E01ACF0E948E07FBCFC8018F
:102180000E944C070E944B08F5CFC8010E944C07E3
:102190000E944B08C8010E94B906882359F3DD202C
:1021A00009F460C00FB6F8940F92F8018189882372
:1021B00039F00688F789E02D908184E0891B01C001
:1021C00080E0D80114960D911C9115970115110509
:1021D00009F446C0F80191A1981708F4982FD80186
:1021E00056968C9156978917D9F192962C91929781
:1021F0002130B1F556969C9356971C962D913C91A3
:102200001D9737FD08C024E030E0291B31091D96D9
:102210003C932E931C97B9E08B9FC0011124865BE1
:102220009C4FF8012285338528173907C9F47801B6
:10223000F2E0EF0EF11CC7010E94C706D8015696C6
:102240008C9190916E03981710F480936E03B9E00F
:102250008B9FC0011124B701865B9C4F0E94EB0647
:102260000F900FBE80E00F900F900F900F900F9087
:10227000DF91CF911F910F91FF90EF90DF90CF9062
:10228000BF90AF909F908F907F9008957F928F9294
:102290009F92AF92BF92CF92DF92EF92FF920F93F5
:1022A0001F93CF93DF93782EA92E6B01EA01B22EF4
:1022B000CA010E943F0B4C01892B09F462C188E2DC
:1022C00090E00E943F0B7C010097E9F0DC015896FA
:1022D0009C928E925797AE0165EA70E0C4010E940D
:1022E00036142197D7015796ED91FC915897EC0F32
:1022F000FD1FC114D104D9F0B701675E7F4FD6012D
:10230000C601089607C0C4010E942E0B3AC1A81747
:10231000B90749F09D014D91EB014993BE01E901D7
:1023200028812111F4CFD70190961C9202C0E701B9
:10233000198E8B2D843008F083E0D70156968C934C
:10234000569791968C93919792961C9292971B9682
:102350001C921E921A9755961C921E92549719968B
:10236000FC92EE92189724E030E0E901C81BD109F5
:102370001D96DC93CE931C975396FC92EE92529747
:1023800093961D921D921D921C92969797961C9261
:1023900091E19083DF01119782E28C93119723E3FF
:1023A0002C9311977C921197AC9211971C921197D4
:1023B00020E82C9311971C92119722E02C931197EF
:1023C00023E02C93119724E02C93119725E02C9374
:1023D000119726E02C93119727E02C93119728E072
:1023E0002C93119729E02C93119720E12C931197AE
:1023F0009C93119792E19C93119793E19C93119771
:1024000094E19C93119795E19C93119796E19C938D
:10241000119797E19C93119798E19C93119799E1FB
:102420009C93119790E29C93119791E29C93119742
:102430008C93119783E28C9311971C9211971C92A5
:10244000119786E28C93119787E28C93119788E21B
:102450008C93119789E28C93119780E38C93119759
:1024600081E38C93B697E701F983E88301151105A1
:1024700019F0F801F182E0820FB6F8940F92809182
:10248000A7028F5F8093A7028091A8029091A90272
:10249000892BD1F5F092A902E092A8028091A702BF
:1024A000813009F043C08AE493E00E94200B83E569
:1024B00093E00E94200B8CE593E00E94200B85E6C0
:1024C00093E00E94200B88E793E00E94200B8FE6A8
:1024D00093E00E94200B8DE992E00E94200B84E99A
:1024E00092E00E94200B8BE892E00E94200B88E78C
:1024F00093E090938A02809389028FE693E0909311
:1025000088028093870212C08091A60281110EC0BA
:10251000E091A802F091A9029689D70156968C9174
:10252000891720F0F092A902E092A802809181031D
:102530008F5F80938103E7018E8990916E039817D6
:1025400010F480936E03D9E08D9FC0011124B70170
:102550006E5F7F4F865B9C4F0E94EB060F900FBE15
:102560008091A602882359F0E091A802F091A90277
:102570009689F7018689981710F40E948E0781E0EA
:1025800001C08FEFDF91CF911F910F91FF90EF90DE
:10259000DF90CF90BF90AF909F908F907F900895E5
:1025A000CF93DF93EC010FB6F8940F9248815981D5
:1025B0008B8D6C8D9A01869F200D311D11243D83DA
:1025C0002C831A8E5B834A8390E00197689F900169
:1025D000699F300D1124CA01820F931F9F838E8340
:1025E0008FEF8D8F8E8FCE0108960E94200BCE012B
:1025F00041960E94200B0F900FBE81E0DF91CF919A
:102600000895EE0FFF1F0590F491E02D09940F93AC
:102610001F93CF93DF938230910510F482E090E016
:10262000E0918403F091850320E030E0A0E0B0E089
:10263000309719F140815181028113814817590760
:10264000C8F08417950769F4109731F012960C932F
:10265000129713961C9327C000938403109385034D
:1026600022C02115310519F04217530718F49A01B9
:10267000BD01EF01DF01F801DBCF21153105F9F0D4
:10268000281B390B2430310580F48A819B81611528
:10269000710521F0FB019383828304C0909385032D
:1026A00080938403FE01329644C0FE01E20FF31FC3
:1026B0008193919322503109398328833AC0209124
:1026C000820330918303232B41F420913E0130910A
:1026D0003F01309383032093820320913C0130918A
:1026E0003D012115310541F42DB73EB74091400120
:1026F00050914101241B350BE0918203F09183033B
:10270000E217F307A0F42E1B3F0B2817390778F0C8
:10271000AC014E5F5F4F2417350748F04E0F5F1F27
:1027200050938303409382038193919302C0E0E02E
:10273000F0E0CF01DF91CF911F910F910895CF93DA
:10274000DF93009709F481C0FC0132971382128253
:10275000A0918403B0918503109781F42081318189
:10276000820F931F2091820330918303281739072A
:1027700051F5F0938303E093820367C0ED0120E0FD
:1027800030E0CE17DF0740F44A815B819E0141159E
:102790005105F1F0EA01F5CFD383C2834081518125
:1027A000840F951FC817D90759F488819981840F20
:1027B000951F0296918380838A819B819383828374
:1027C0002115310529F4F0938503E09384033DC07E
:1027D000E901FB83EA8349915991C40FD51FEC1796
:1027E000FD0761F480819181840F951F0296E901B4
:1027F00099838883828193819B838A83E0E0F0E0E0
:1028000012968D919C911397009719F0FD01DC01B0
:10281000F7CF8D919C9111979D012E5F3F4F820FB5
:10282000931F20918203309183032817390769F49D
:10283000309729F4109285031092840302C013820A
:102840001282B0938303A0938203DF91CF91089506
:1028500081E090E0F8940C943D14FB01DC0102C08F
:1028600001900D9241505040D8F70895DC0101C00D
:0E2870006D9341505040E0F70895F894FFCF6B
:10287E004C430000000000000000000000000000BB
:10288E0000000000504C4544000000000000000015
:10289E0000000000000000002D504C4544000000D8
:1028AE000000000000000000000000000000860391
:1028BE00800000000000F1025A0288023E03B902B5
:1028CE009702AB023E20002D504C4544004C430075
:1028DE004552524F212121000D0A005465726D6937
:1028EE006E616C0049444C4500546D722053766302
:0228FE000000D8
:00000001FF
