:100000000C9435000C945D000C945D000C945D0024
:100010000C945D000C945D000C945D000C945D00EC
:100020000C945D000C945D000C945D000C945D00DC
:100030000C945D000C945D000C945D000C945D00CC
:100040000C9483010C945D000C94F3010C94CD018D
:100050000C945D000C945D000C945D000C945D00AC
:100060000C945D000C945D00510311241FBECFEF72
:10007000D8E0DEBFCDBF11E0A0E0B1E0ECE6F7E0F4
:1000800002C005900D92AA31B107D9F722E0AAE18A
:10009000B1E001C01D92A439B207E1F710E0C5E359
:1000A000D0E004C02197FE010E94A003C433D10711
:1000B000C9F70E9425020C94B4030C940000CF925F
:1000C000DF92EF92FF920F931F93CF93DF936C0118
:1000D0007A018B01C0E0D0E0CE15DF0581F0D801B8
:1000E0006D918D01D601ED91FC910190F081E02D93
:1000F000C6010995892B11F02196EECF7E01C7012B
:10010000DF91CF911F910F91FF90EF90DF90CF90F3
:100110000895089580E090E00895FC01538D448D8A
:10012000252F30E0842F90E0821B930B541710F0A2
:10013000CF96089501970895FC01918D828D9817AF
:1001400061F0828DDF01A80FB11D5D968C91928DBB
:100150009F5F9F73928F90E008958FEF9FEF0895B8
:10016000FC01918D828D981731F0828DE80FF11D81
:10017000858D90E008958FEF9FEF0895FC01918D9C
:10018000228D892F90E0805C9F4F821B91098F7395
:100190009927089587EF91E00E94BE0021E0892B06
:1001A00009F420E0822F0895FC01848DDF01A80F5F
:1001B000B11DA35ABF4F2C91848D90E001968F738F
:1001C0009927848FA689B7892C93A089B1898C91AE
:1001D000837080648C93938D848D981306C00288FD
:1001E000F389E02D80818F7D80830895EF92FF92C7
:1001F0000F931F93CF93DF93EC0181E0888F9B8D4A
:100200008C8D981305C0E889F989808185FD26C009
:10021000F62E0B8D10E00F5F1F4F0F731127E02E8E
:100220008C8DE8120CC00FB607FCFACFE889F9896B
:10023000808185FFF5CFCE010E94D400F1CF8B8D58
:10024000FE01E80FF11DE35AFF4FF0829FB7F894CB
:100250000B8FEA89FB89808180620AC09FB7F8947E
:10026000EE89FF896083E889F989808183708064E1
:1002700080839FBF81E090E0DF91CF911F910F912C
:10028000FF90EF900895CF93DF93EC01888D882342
:10029000C9F0EA89FB89808185FD05C0A889B989F3
:1002A0008C9186FD0FC00FB607FCF5CF808185FFCE
:1002B000F2CFA889B9898C9185FFEDCFCE010E943C
:1002C000D400E7CFDF91CF91089580E090E0892BB3
:1002D00029F00E94CA0081110C9400000895009733
:1002E00069F0FC0101900020E9F73197AF01481B4C
:1002F000590BBC0187EF91E00C945F0080E090E027
:1003000008950E94A6031F920F920FB60F92112418
:100310002F933F938F939F93AF93BF938091F3015C
:100320009091F401A091F501B091F6013091F201A4
:1003300023E0230F2D3720F40196A11DB11D05C028
:1003400026E8230F0296A11DB11D2093F201809390
:10035000F3019093F401A093F501B093F60180911D
:10036000EE019091EF01A091F001B091F1010196A1
:10037000A11DB11D8093EE019093EF01A093F001B8
:10038000B093F101BF91AF919F918F913F912F91C8
:100390000F900FBE0F901F9018951F920F920FB6DF
:1003A0000F9211242F933F934F935F936F937F93FB
:1003B0008F939F93AF93BF93EF93FF9387EF91E05A
:1003C0000E94D400FF91EF91BF91AF919F918F91C7
:1003D0007F916F915F914F913F912F910F900FBE41
:1003E0000F901F9018951F920F920FB60F92112425
:1003F0002F938F939F93EF93FF93E0910702F091D8
:1004000008028081E0910D02F0910E0282FD12C07F
:100410009081809110028F5F8F732091110282175B
:1004200051F0E0911002F0E0E950FE4F958F80937B
:10043000100201C08081FF91EF919F918F912F91C8
:100440000F900FBE0F901F901895CF93DF93CDB7ED
:10045000DEB7A1970FB6F894DEBF0FBECDBF78947C
:1004600084B5826084BD84B5816084BD85B58260B9
:1004700085BD85B5816085BD80916E00816080936A
:100480006E001092810080918100826080938100D3
:1004900080918100816080938100809180008160E3
:1004A000809380008091B10084608093B10080913E
:1004B000B00081608093B00080917A008460809366
:1004C0007A0080917A00826080937A0080917A002D
:1004D000816080937A0080917A00806880937A00AE
:1004E0001092C100E0910702F091080282E080833F
:1004F000E0910302F09104021082E0910502F09174
:1005000006028FEC808310920F02E0910B02F091B3
:100510000C0286E08083E0910902F0910A0280815A
:1005200080618083E0910902F0910A0280818860F5
:100530008083E0910902F0910A02808180688083C3
:10054000E0910902F0910A0280818F7D80838DE025
:10055000382E9AE1A92E91E0B92E2CE6922E34E69F
:10056000832E4AE0442E512C612C712C87EF91E0B0
:100570000E94BE0018161906ECF487EF91E00E9465
:100580009C008D3039F481E090E09093ED018093F0
:10059000EC0110C02091EA013091EB01A9014F5FFD
:1005A0005F4F5093EB014093EA01F901EA57FE4F88
:1005B0008083DCCF0091EA011091EB01F801EA574A
:1005C000FE4F30828091EC019091ED01892B09F46E
:1005D00065C0D501E92D1D92EA95E9F7A80166E805
:1005E00071E08AE191E00E94AB036801110FEE080F
:1005F000FF08F7FE20C06DE287EF91E00E94F60051
:1006000022273327A9012C193D094E095F0919A298
:10061000CE0181967C01CA01B901A30192010E9419
:100620007E03605DD7016E937D0121153105410583
:10063000510589F715C0A701960119A2FE01B196CF
:100640007F01CA01B901A30192010E947E03605D8E
:10065000D7016E937D01211531054105510589F7BB
:10066000C7010E946F018AE191E00E946F0182E15F
:1006700091E00E946F0186E191E00E946F01E6E83F
:10068000F1E0DF01882D1D928A95E9F71092EB01C8
:100690001092EA011092ED011092EC010E946501A6
:1006A00065CFE7EFF1E01382128288EE93E0A0E0DD
:1006B000B0E084839583A683B78384E091E091833F
:1006C000808385EC90E09587848784EC90E0978721
:1006D000868780EC90E0918B808B81EC90E0938B0F
:1006E000828B82EC90E0958B848B86EC90E0978BEC
:1006F000868B118E128E138E148E0895A1E21A2EFF
:10070000AA1BBB1BFD010DC0AA1FBB1FEE1FFF1FB5
:10071000A217B307E407F50720F0A21BB30BE40B05
:10072000F50B661F771F881F991F1A9469F760954C
:100730007095809590959B01AC01BD01CF01089506
:10074000EE0FFF1F0590F491E02D099481E090E0F9
:10075000F8940C94B403FB01DC0102C001900D92EB
:0C07600041505040D8F70895F894FFCFA6
:10076C0000000000F6005F008D004301BE009C00FD
:0A077C00B000415344000D0A0000D4
:00000001FF
